{
  "contractName": "EthAvatar",
  "abi": [
    {
      "anonymous": false,
      "inputs": [
        {
          "indexed": true,
          "name": "hashAddress",
          "type": "address"
        },
        {
          "indexed": false,
          "name": "hash",
          "type": "string"
        }
      ],
      "name": "DidSetIPFSHash",
      "type": "event"
    },
    {
      "constant": false,
      "inputs": [
        {
          "name": "hash",
          "type": "string"
        }
      ],
      "name": "setIPFSHash",
      "outputs": [],
      "payable": false,
      "stateMutability": "nonpayable",
      "type": "function"
    },
    {
      "constant": true,
      "inputs": [],
      "name": "getIPFSHash",
      "outputs": [
        {
          "name": "",
          "type": "string"
        }
      ],
      "payable": false,
      "stateMutability": "view",
      "type": "function"
    }
  ],
  "bytecode": "0x6060604052341561000f57600080fd5b61040e8061001e6000396000f30060606040526004361061004c576000357c0100000000000000000000000000000000000000000000000000000000900463ffffffff16806320b28ade14610051578063b8a76f54146100df575b600080fd5b341561005c57600080fd5b61006461013c565b6040518080602001828103825283818151815260200191508051906020019080838360005b838110156100a4578082015181840152602081019050610089565b50505050905090810190601f1680156100d15780820380516001836020036101000a031916815260200191505b509250505060405180910390f35b34156100ea57600080fd5b61013a600480803590602001908201803590602001908080601f01602080910402602001604051908101604052809392919081815260200183838082843782019150505050505091905050610220565b005b610144610329565b6000803373ffffffffffffffffffffffffffffffffffffffff1673ffffffffffffffffffffffffffffffffffffffff1681526020019081526020016000208054600181600116156101000203166002900480601f0160208091040260200160405190810160405280929190818152602001828054600181600116156101000203166002900480156102165780601f106101eb57610100808354040283529160200191610216565b820191906000526020600020905b8154815290600101906020018083116101f957829003601f168201915b5050505050905090565b806000803373ffffffffffffffffffffffffffffffffffffffff1673ffffffffffffffffffffffffffffffffffffffff168152602001908152602001600020908051906020019061027292919061033d565b503373ffffffffffffffffffffffffffffffffffffffff167f3ad00a2153f5aa93fde4e185fe1fdbf9a5504e110816d08da5fe39fbe7cec83e826040518080602001828103825283818151815260200191508051906020019080838360005b838110156102ec5780820151818401526020810190506102d1565b50505050905090810190601f1680156103195780820380516001836020036101000a031916815260200191505b509250505060405180910390a250565b602060405190810160405280600081525090565b828054600181600116156101000203166002900490600052602060002090601f016020900481019282601f1061037e57805160ff19168380011785556103ac565b828001600101855582156103ac579182015b828111156103ab578251825591602001919060010190610390565b5b5090506103b991906103bd565b5090565b6103df91905b808211156103db5760008160009055506001016103c3565b5090565b905600a165627a7a7230582088aba6543c2603efcb00bf7c9a802d8b9498f4812070584b5e2211e7beed02fe0029",
  "source": "pragma solidity ^0.4.19;\n\ncontract EthAvatar {\n    mapping (address => string) private ipfsHashes;\n\n    event DidSetIPFSHash(address indexed hashAddress, string hash);\n\n\n    function setIPFSHash(string hash) public {\n        ipfsHashes[msg.sender] = hash;\n\n        DidSetIPFSHash(msg.sender, hash);\n    }\n\n    function getIPFSHash() public view returns (string) {\n        return ipfsHashes[msg.sender];\n    }\n}\n",
  "sourcePath": "/Users/tarekskr/Development/ethereum/eth-avatar/contracts/EthAvatar.sol",
  "compiler": {
    "name": "solc",
    "version": "0.4.19+commit.c4cbbb05.Emscripten.clang"
  },
  "schemaVersion": "2.0.0",
  "updatedAt": "2018-03-08T00:50:21.719Z"
}